:020000040800F2
:10000000C045002009030008114200087D40000897
:100010000D420008D51700085548000800000000F0
:1000200000000000000000000000000099420008ED
:10003000F917000800000000954200089D420008E2
:1000400023030008230300082303000823030008F8
:1000500023030008230300082303000823030008E8
:1000600023030008230300082303000823030008D8
:1000700023030008230300082303000823030008C8
:1000800023030008230300082303000823030008B8
:10009000D9170008230300082303000823030008DE
:1000A0002303000823030008230300082303000898
:1000B0002303000823030008230300082303000888
:1000C0002303000823030008230300082303000878
:1000D0002303000823030008230300082303000868
:1000E0002303000823030008230300082303000858
:1000F00089430008230300082303000823030008A2
:100100002303000823030008230300082303000837
:100110002303000823030008230300082303000827
:100120002303000823030008230300082303000817
:100130002303000823030008230300082303000807
:10014000E91700082303000823030008230300081D
:1001500023030008230300082303000823030008E7
:1001600023030008230300082303000823030008D7
:1001700023030008230300082303000800000000F5
:1001800023030008230300082303000823030008B7
:1001900023030008230300082303000823030008A7
:1001A00000000000000000002303000800F002F837
:1001B00000F098F80AA090E8000C82448344AAF169
:1001C0000107DA4501D100F08DF8AFF2090EBAE867
:1001D0000F0013F0010F18BFFB1A43F0010318477B
:1001E000C4560000E4560000103A24BF78C878C115
:1001F000FAD8520724BF30C830C144BF04680C602D
:10020000704700000023002400250026103A28BF74
:1002100078C1FBD8520728BF30C148BF0B60704778
:100220006E2900F01582702900F05783662905F0C9
:10023000A882652905F0A582672905F0A2826129B7
:1002400005F0A18203681B0A28BF41F080016929DB
:1002500000F0C281642900F0BF81752900F0BC81E3
:100260006F2900F0E582782900F02383E92900F066
:100270007F82E42900F07C82F52900F07982EF2961
:1002800000F0E282F82900F022830368DB0928BF2E
:1002900041F08001632901F02B80732901F0308047
:1002A000E32901F03B80F32901F0408000207047F2
:1002B0001FB505F061FA01F08FF80400002000215D
:1002C00005F044FA401C60600020002105F028FA87
:1002D000E0600FBC00F016F80FB400F009F91FBD84
:1002E00010B510BD01F04BF81146FFF7E1FF04F027
:1002F000E7FD01F027F903B4FFF7F2FF03BC00F0BC
:10030000BBFB000001F03DB90948804709480047A0
:10031000FEE7FEE7FEE7FEE7FEE7FEE7FEE7FEE7B5
:10032000FEE7FEE704480549054A064B7047000012
:1003300075430008AD010008C0010020C045002041
:10034000C0410020C041002053EA020C00F0698047
:100350002DE9F04B4FF00006002B1FBFB3FA83F5D9
:1003600003FA05F424FA05F65E4012BF1643B2FA0A
:1003700082F502FA05F4C5F120051EBF22FA05FC3C
:1003800044EA0C04203556EA044C4FEA144418BFE2
:10039000641C4FF000084FF00009904271EB030C11
:1003A00039D3002919BFB1FA81F701FA07F6B0FA7B
:1003B00080F700FA07F6C7F120071EBF20FA07FCF6
:1003C00046EA0C062037B6FBF4FCA7EB0507103F06
:1003D00007F01F0BCBF120062CFA06F60CFA0BFBEC
:1003E00044BFB3460026202FA4BF5E464FF0000B4B
:1003F0005BEA060C08BF4FF0010B19EB0B0948EB49
:100400000608ABFB027C06FB02CC0BFB03CCC01B3B
:1004100071EB0C01C1E70B46024641464846BDE878
:10042000F08B13B54FF000004FF00001AFF30080E8
:10043000BDE81C40704700001CB50C46064B7B44D1
:1004400069460090204600F01CF9044600206946E9
:1004500000F02AF920461CBD6702000010B5431CBD
:1004600002E010F8011B71B18107FAD14FF001329F
:1004700002C88C1A8C4314EAC211F9D0C01A0A06B9
:1004800003D0C01E10BDC01A10BD0A0401D0801ECA
:1004900010BD0902FCD0401E10BD4FF0000200B597
:1004A000134694469646203922BFA0E80C50A0E897
:1004B0000C50B1F12001BFF4F7AF090728BFA0E845
:1004C0000C5048BF0CC05DF804EB890028BF40F811
:1004D000042B08BF704748BF20F8022B11F0804F53
:1004E00018BF00F8012B7047704770477047000035
:1004F00070B5064C7C44064D7D4403E020682044E2
:100500008047241DAC42F9D170BD0000F8540000B2
:10051000F854000070B5044685690068C10601D52D
:10052000302600E02026C00707D070BDD4E90121A5
:1005300030469047206A401C20626D1EF6D570BD83
:1005400070B5044685690078C00707D170BDD4E94D
:10055000012120209047206A401C20626D1EF6D5A4
:1005600070BD09684A0501D540B27047C905FCD580
:1005700000B2704709684A0501D5C0B27047C90585
:10058000FCD580B2704770B50C460546012A05D0EF
:100590002878800600D5EA69002302E0012305E0FF
:1005A0005B1C934202D2E05C0028F9D1A869E618EE
:1005B000C01AA861286A184428622846FFF7AAFFD3
:1005C00004E0D5E9012114F8010B9047B442F8D3B7
:1005D0002846FFF7B5FF70BD2DE9F041064600241F
:1005E00010687529314616A510D0FFF7BAFF00280C
:1005F00002DA404213A507E031688A0701D512A547
:1006000002E0490704D511A5012401E0FFF7B2FF7C
:1006100000210A2206F1240709E0B0FBF2FCB0FB3E
:10062000F2F302FB1C00303078541846491C0028B5
:10063000F3D123462A463046BDE8F04100F067BAC0
:10064000000000002D0000002B0000002000000032
:1006500011680268006A530501D508700AE0D305E5
:1006600001D5088006E0130603D5C217C1E90002D0
:1006700000E008600120704701694A1C02610878A7
:10068000704700B58FB0CDE90131002105910549D2
:100690007944CDE903101146684600F029F90FB0FE
:1006A00000BD0000E5FFFFFF0A6802F8010B0A60C9
:1006B000704700002DE9FF5F15468A460446DFF8C3
:1006C000AC80F8440027D8E900103E46CDE9001080
:1006D00010E03AF816106A4602A800F02BFE411C02
:1006E00007D02178890603D5E269391891420DD8DF
:1006F0000744761C2078800602D5E069B84205DD03
:10070000AE42E6DB3AF816000028E2D1A069C01B31
:10071000A0612046FFF7FEFED8E90010CDE90010E9
:10072000002017E03AF818106A4602A800F002FE0E
:10073000B0F1FF3F81460BD000250DF1080B05E01D
:10074000D4E901211BF8050090476D1C4D45F7D3F6
:1007500008F10100B0428046E4DB206A38442062A0
:100760002046FFF7EDFEBDE8FF9F0000C6500000E9
:100770002DE9F0418046D21D22F007020025D2E982
:100780000002F52915A614D0011E72F1000106DA47
:100790000023D0EB030063EB020211A608E0D8F8B7
:1007A00000108B0701D50FA602E0490701D50EA660
:1007B00001251146002408F1240704E000F062F945
:1007C00030323A55641C50EA0102F7D12B463246CA
:1007D00021464046BDE8F04100F099B90000000014
:1007E0002D0000002B0000002000000030B400218C
:1007F00000F1240408E002F00705D208303542EA8F
:100800004372DB086554491C52EA0305F3D10468BE
:10081000002310A2250708D504F020040C4304D0BF
:10082000C46901230CA2641EC46130BC00F06FB91E
:1008300010B5044621461068FFF79CFE024620468C
:10084000BDE810400023D1E7D21D22F00701D1E915
:100850000023CBE70000000030000000F0B40D469C
:100860000188090502D5214C7C4402E01F4C7C44E0
:100870000E34002100F1240608E002F00F071209EF
:10088000E75D42EA03721B097754491C52EA0307E9
:10089000F3D102780023120704D5702D06D009B1D8
:1008A000022311342246F0BC00F031B90123103488
:1008B000F8E770B504460D4621461068FFF75AFE6A
:1008C000024629462046BDE870400023C6E7D21DF7
:1008D00022F00703D3E90023C0E70368126843F05E
:1008E000200303600823C3610023B7E7284F0000FB
:1008F0002DE9F05F894604464FF0000ADFF874B135
:10090000FB44C0F820A02046E1688847002874D046
:10091000252806D0D4E901219047206A401C206296
:10092000F1E700265F462046E16888472028054613
:1009300007DB312D05D2781910F8200C08B10643D9
:10094000F1E7B00701D526F00406C4F81CA0002783
:10095000C4F818A02A2D09D0284604F0D9FE38B3CF
:1009600004EB8708303DC8F8185019E059F8041B0B
:10097000204604EB87029161E1688847012F054614
:1009800018D1E069002820DA26F020061DE0D8F80A
:10099000180000EB800005EB40003038C8F8180064
:1009A0002046E1688847054604F0B2FE0028EED1F3
:1009B000012F0AD02E2D08D12046E16888477F1CE0
:1009C0000546022F46F02006C4DBA069002803DAA2
:1009D000404246F00106A061F00701D026F0100663
:1009E0006C2D0BD0682D09D04C2D39D06A2D35D007
:1009F000742D35D07A2D33D016E038E0E1682F46DB
:100A000020468847B842054609D16C2F26D04FF4BE
:100A10008060E168064320468847054604E06C2F65
:100A20001AD04FF4807006430DB3A5F14100192888
:100A300002D8203546F400664A46294620462660FC
:100A40004E46FFF7EDFB80B101280BD0F61D26F0D6
:100A5000070000F1080956E74020E4E78020D8E7C6
:100A60000020D6E706F104094DE7284652E7206A40
:100A7000BDE8F09FB84E000001491820ABBEFEE76C
:100A80002600020030B5B0F10A0271F100034FEA0E
:100A9000900E4EEA817EB0EB0E0061EB91014FEAC1
:100AA000101E4EEA017E10EB0E0041EB11114FEAD1
:100AB000102E4EEA016E10EB0E0041EB11214FEAB1
:100AC000104E4EEA014E10EB0E0041EB1141401862
:100AD00041F100014FEAD00040EA41704FEAD101F4
:100AE0004FEA810444EA907410EB800544EB010462
:100AF0006D1944EB0404521BA3414FF0000348BF9F
:100B00000A3200D530BD401C41F1000130BD2DE955
:100B1000F0470D4699469246044600F124080168C4
:100B2000880604D5E06921F01001216000E0012071
:100B3000A84201DD471B00E00027A1697A1902EBFA
:100B40000900081AA0612078C00602D42046FFF7E9
:100B5000E1FC002608E0D4E901211AF806009047DC
:100B6000206A401C761C20624E45F4DB2078C006CB
:100B70000AD52046FFF7CEFC06E0D4E9012130205B
:100B80009047206A401C2062381EA7F10107F4DC60
:100B900007E0D4E9012118F805009047206A401CBD
:100BA0002062281EA5F10105F3DC2046FFF7C8FCF2
:100BB0002078000602D50220BDE8F0870120FBE77F
:100BC00070472DE9FF4F0C461E464FF0FF378BB0A4
:100BD000D2E90001DDF860800A908A46C1F30A5527
:100BE00005B93D46002108464FF00000BAF1000F5C
:100BF00000F4400005DA00EB80004FF4400101EA08
:100C000050004FEA9059B9F1010F00DDB9460A983A
:100C100050EA4A000ED044F61050A5F2FF35454385
:100C20002F14B8F1000F1ED07542291E1EDDC9F128
:100C300000021CE0B8F1010F4FF0000001D030219C
:100C400003E0F24305E02154401CB042FBDB304698
:100C50000022002121540B99C1F80880C1E900202D
:100C60000FB0BDE8F08FBD1B6D1CDEE74A4600DA11
:100C7000694206A800F0F4FB06AB93E8070003AB5B
:100C800083E8070050460A9904F062F98DE80700EE
:100C9000A0F500501F3800900398002D0ADD42F2A5
:100CA0001F014A460844002303A90390684604F044
:100CB000CBFB09E0A0F500504A461F38002303A9EA
:100CC0000390684604F0D5FB8DE807000004000C93
:100CD00003D04FF0FF30410800E01046B8F1000F9C
:100CE00003D00022009215461EE0751E05D4FFF7C2
:100CF000C9FE303262556D1EF9D5B3460122084354
:100D000002D000227F1C04E02078302801D100228C
:100D10007F1E002A099784D01DE0112D07DAFFF706
:100D2000B1FE303262556D1C50EA0102F5D1084324
:100D300002D00098C8B10EE00021681E05E0235CD7
:100D4000625C63542254401E491C8142F7DBAB466F
:100D5000A81B401E0990002004F80B000B98099A6C
:100D6000C0F80880C0E9002B7AE711264FF0000890
:100D700057E72DE9F04F88460446D21D22F00701BF
:100D800091B0D1E90001CDE90A0104F0A9FC0246C5
:100D90000B98C00F01D02D2007E02068810701D5F6
:100DA0002B2002E0202101EAC000032A099001D093
:100DB000072A05DB03464146204600F011FB0BE104
:100DC0002078800601D5E06900E00620B8F1650FC3
:100DD000814606D0B8F1660F18D0B8F1670F70D110
:100DE00031E00020B9F1110F009001DB112301E087
:100DF00009F101030AAA01A90CA8FFF7E2FEDDE947
:100E00000C70002609F10105834647E001204B469E
:100E100000904FF000470AAA01A90CA8FFF7D1FEE5
:100E2000DDE90DB00C995D46002610B909F101000D
:100E30000D18B9EB050003D4C0F1FF3609F1010527
:100E4000A5EB09002BE0B9F1010F01DA4FF0010920
:100E50000020B9F1110F0090484601DD112300E098
:100E600003460AAA01A90CA8FFF7ABFEDDE90C7046
:100E70004D4600268346207800070AD4AB4500DAA9
:100E80005D4601A8012D04DD411911F8011C30292E
:100E900007D04F4502DA17F1040F04DA0120824629
:100EA0000FE06D1EEEE7002F02DCED1B3E4403E079
:100EB000781CA84200DD7D1CB81B00F1010A4FF030
:100EC00000472078000703D4AA4501DB4FF0FF3A22
:100ED0000021B7F1004F0DF143088DF8431024D0E5
:100EE00002202B23002F01DA7F422D230A21021E2C
:100EF000A0F1010000DC5FB197FBF1FC97FBF1F280
:100F000001FB1C7C17460CF1300C08F801CDEEE714
:100F1000A8F1010003702188090501D5452100E0F1
:100F20006521A0F1010800F8011C09980FA9A1EBA7
:100F30000807FF1D00B10120411901EBEA70A1690A
:100F40003844081A401EA0612078C00602D420460A
:100F5000FFF7E0FA099828B1D4E901219047206A07
:100F6000401C20622078C00622D52046FFF7D2FA26
:100F70001EE0002E04DBB34502DD01A8805D00E029
:100F80003020D4E901219047206A401C2062761C61
:100F9000AAF101005FEA000A0AD100F01DFAC06858
:100FA0000168405CD4E901219047206A401C20621E
:100FB000281EA5F10105DCDC07E0D4E9012118F8C1
:100FC000010B9047206A401C2062381EA7F10107E0
:100FD000F3DC2046FFF7B4FA032011B041E600002D
:100FE0002DE9F04F04460D46D21D22F0070089B0CE
:100FF000D0E900974846394604F072FB0246F80FE4
:1010000001D02D2307E02068810701D52B2302E0C2
:10101000202101EAC0038DF820300BB1012000E04F
:101020000020032A824601D0072A04DB29462046F5
:1010300000F0D6F93FE12078800601D40D2500E0CC
:10104000E569C7F30A560D2D49DA00214FEA175B0F
:1010500008464FF00000002F00F4400007DA00EBD4
:1010600080004FF4400100EBD07001EA6000811570
:10107000012901DD4FF0FF3100224FEA850CBCF160
:10108000180F06D31346ACF118004FF08052C2403F
:1010900003E04FF4801323FA0CF30CF10C0CBCF1B9
:1010A000200F04D3ACF1200C09FA0CF001E007FA90
:1010B0000CF000294FF0004801DD18B90FE00ED107
:1010C00040450CD319EB02095F4121B9404502D1DB
:1010D0009F4329EA0209BBEB175F00D0761C2088EA
:1010E000000502D57B48784402E07A4878441938F4
:1010F00008AA302302F80A30037C0AF10101002E0D
:101100000AF1020A53546A4602DC4FF0300101E052
:101110004FF031014FF001088DF8001002D0A6F217
:10112000FF3603E059EA470100D06B4E002D02DC88
:101130002178090704D54FF002082E218DF80110FF
:10114000C44600210BE0C7F303433F01C35C491CC5
:101150006D1E02F80830052908F1010801DA002D9A
:10116000F1DC00210CE000EB1973491C1B786D1EAB
:10117000082902F808304FEA091908F1010801DAD4
:10118000002DF0DC21688B0602D516E0A8F10108DD
:10119000E04505DD02EB080313F8013C302BF5D0E8
:1011A000B8F1000F09DD02EB080313F8013C2E2B08
:1011B00003D1090701D4A8F10108002D05DD3E2166
:1011C00002F808106D1E08F10108407C002E02F89C
:1011D000080008F1010804DA2D20764202F8080020
:1011E00002E02B2002F808000A214FF47A708642B0
:1011F00008F101080BDB96FBF0F3303302F80830FE
:1012000096FBF0F308F1010800FB136601E0642E81
:101210000CDB642096FBF0F3303302F8083096FBC9
:10122000F0F308F1010800FB136601E00A2E06DB6B
:1012300096FBF1F0303002F8080008F1010896FB47
:10124000F1F001FB1060303002F80800A16908F1EC
:10125000010808EB050202EB0A00081AA0612078D9
:10126000C00602D42046FFF755F9216A08AE01EB0B
:101270000A00206204E0D4E9012116F8010B90472E
:10128000BAF1010AF7D22078C00602D52046FFF74E
:1012900041F96E4609E016F8010B3E280FD0D4E95B
:1012A00001219047206A401C2062B8F10108F2D267
:1012B0002046FFF745F909B00320BDE8F08F206A0A
:1012C0002844206203E0D4E90121302090476D1EBC
:1012D000EBD3F8E7F646000002FCFFFF10B54369C8
:1012E00013B1AFF3008001E0FFF74DF9012010BD0D
:1012F000127800F124010A7000224A700122EDE701
:1013000011684FF0FF32E9E710B5436913B1AFF34D
:10131000008001E0FFF7CEF9012010BD128800F136
:10132000240182840022C2840122EDE711684FF07B
:10133000FF32E9E72DE9F04116460C46054600F07C
:1013400043F8036893F80101012807D0FF2C12D855
:10135000185D80B101202C70BDE8F081D3F8070141
:101360003246214603F20713C7182846BC46BDE89B
:10137000F041002360474FF0FF30EDE770477546BE
:1013800000F092F9AE4605006946534620F007008A
:10139000854618B020B5FEF7C5FFBDE820404FF0E8
:1013A00000064FF000074FF000084FF0000BAC466E
:1013B000ACE8C009ACE8C009ACE8C009ACE8C009B9
:1013C00021F007018D46704710B500F005F8001DAB
:1013D00010BD00BF79430000004870473000002076
:1013E0002DE9F0411F46044603260168072A01F44F
:1013F000006004DB08B116A505E016A503E008B1FE
:1014000015A500E015A521F010002060A069C01E00
:10141000A0610FB1401EA0612046FFF77BF84FB1DD
:10142000D4E9012138469047206A401C2062C01C44
:10143000206206E0206AFAE7D4E9012115F8010BE1
:101440009047761EF8D22046FFF77AF8BDE8F08183
:101450004E414E006E616E00494E4600696E660058
:101460002DE9F047814616468AB0354878440DC8C4
:101470008DE80D0032487844801C03AC0DC884E828
:101480000D0041F69B300844372190FBF1F290FBB0
:10149000F1F5A5F1800501FB12041B3C02D5644265
:1014A000012000E00020DFF898A080460027FA44E1
:1014B000AAF1BE0A0EE0E0070AD03246684607EB02
:1014C000470101230AEB810103F0D3FF8DE80700F8
:1014D00064107F1C002CEED1194F7F44AE3F19E001
:1014E000E80715D007EB04100DF1180A90E80E007C
:1014F0008AE80E00C068F04201D19819089032467F
:10150000012306A903A803F0B4FF03AB83E8070097
:101510006D10641C002DE3D14FF001033246694683
:10152000B8F1000F03A802D003F08EFF01E003F032
:10153000A0FFC9E90001C9F808200AB0BDE8F0879A
:101540000044000010B50446AFF300802046BDE81B
:101550001040FEF7D0BE002801D0FFF78DBA7047CB
:101560000246C91C21F00301D2E900031B1A8B4279
:1015700001D2002070470144C91D21F0070111600C
:1015800070472DE9F34F83B000274FF48074BA46BB
:1015900003A821468DF80070FFF7E2FF5FEA00081C
:1015A00001D100F0A0F82146404600F070F8060096
:1015B00009D04FF0010B4546C14616F8014B8FB1DB
:1015C0005C2C16D01CE008F108004146C8F8000069
:1015D0000020C8F80400D8F800402070012005B0B1
:1015E000BDE8F08F222C01D0272C0FD12746BA4618
:1015F0002CE03078222807D05C2805D0272803D09B
:10160000BC4203D1002721E0761C04464CB12FB91F
:10161000202C06D0A4F10900042802D905F8014BBA
:10162000CBE74D4502D1BAF1000F0FD052464946E3
:10163000002005F8010B6846AFF300809DF800001C
:1016400070B14D464FF0000A0BF1010B002CB4D1E4
:101650004FEA8B0103A8FFF783FF040002D004E0E8
:10166000A946EFE7002000F03EF800204246C4F80B
:10167000008005E012F8011B11B9401C44F820203D
:10168000AA42F7D3002144F820102146A7E71CB551
:101690000446CDE9000169461520ABBE08B1002023
:1016A0001CBD20461CBD00000048704710000020F3
:1016B0007047704770B505460C460A2000E06D1C67
:1016C00000F058F835B128780028F8D102E0641C01
:1016D00000F050F814B120780028F8D1BDE870402F
:1016E0000A2000F047B810B500F04CF8BDE81040F3
:1016F000FFF731BF0000000030B44FF0013C50F85C
:10170000042B51F8043BCCFA52F4D51A20D1FCB981
:1017100050F8042B51F8043BCCFA52F4D51A17D1E7
:10172000B4B950F8042B51F8043BCCFA52F4D51A52
:101730000ED16CB950F8042B51F8043BCCFA52F49A
:10174000D51A05D1002CDAD030BC4FF0000070471C
:1017500029BAB1FA81F111F01801D1F120008440C9
:10176000F2D1CA40CB4012F0FF0213F0FF0330BCAD
:10177000D01A704708B569468DF800000320ABBE4B
:1017800008BD000010B5012805D0002103A0FFF717
:1017900091FF012010BD09A1F8E70000534947520D
:1017A000544D454D3A204F7574206F662068656131
:1017B00070206D656D6F7279000000003A204865F9
:1017C0006170206D656D6F727920636F72727570D4
:1017D00074656400FFE7FEE780B540F27C00C2F26A
:1017E000000000F02FFB80BD80B540F2A400C2F2E3
:1017F000000000F027FB80BD7047000072B6FFE7D5
:10180000FEE7000086B00A46034604900391049860
:1018100090F820008DF80B009DF80B000128019234
:10182000009305D0FFE79DF80B0002280AD1FFE7DF
:101830000398049909684A691043486100208DF8AB
:10184000170008E00498416A41F4802141620120B8
:101850008DF81700FFE79DF8170006B070470000ED
:10186000B0B58CB09C4696460C4605460A90099148
:10187000089207930A9890F820008DF817000A98AC
:10188000006880680490099880680028CDF80CC032
:10189000CDF808E00194009501D1FFE700E0FFE7F3
:1018A0009DF81700012806D0FFE79DF817000228D1
:1018B00040F08280FFE79DF81300400700280CD419
:1018C000FFE79DF813000007002806D4FFE79DF806
:1018D0001300C006002866D5FFE70498C0F3016036
:1018E00006900698012101FA00F00799086009980E
:1018F000806800280DD1FFE709980168C06840EAB8
:1019000041500A990968069A01EB0211C1F8800159
:101910000EE0099841688268C06842EAC101084344
:101920000A990968069A01EB0211C1F88001FFE7E4
:10193000099800690A990968069A01EB0211C1F831
:1019400084010998007D01280CD1FFE70A980068FE
:10195000069900EB0110D0F8841141F48071C0F8B1
:101960008411FFE7089840680A990968069A01EB14
:101970000211C1F88C01089800680A990968069A52
:1019800001EB0211C1F888010A980068069900EB82
:101990000110D0F8801141F00101C0F88011002041
:1019A0008DF82F0011E00A98416A41F4001141625C
:1019B00001208DF82F0008E00A98416A41F4802147
:1019C000416201208DF82F00FFE79DF82F000CB039
:1019D000B0BD000088B00A460346069005910698FF
:1019E00000680390069890F820008DF80B009DF891
:1019F0000B0001280192009306D0FFE79DF80B0031
:101A0000022840F0B880FFE746F20040C4F2000030
:101A100003900398D0F8001241F00101C0F80012C1
:101A20000398D0F8001221F47C51C0F800120598F8
:101A3000406A0399D1F8002242EA0020C1F800026E
:101A40000598406900F01F00012101FA00F00490A0
:101A500004980399D1F81C2222EA0000C1F81C0264
:101A60000598C06900281FD1FFE704980399D1F8B1
:101A70000C2222EA0000C1F80C0205988188C26895
:101A8000406941EA0241039A02EBC000C0F84012EB
:101A9000059801888268406941EA0241039A02EB95
:101AA000C000C0F84412FFE70598C06901281ED1A4
:101AB000FFE704980399D1F80C221043C1F80C02F7
:101AC000059881880268406941EA0241039A02EB65
:101AD000C000C0F84012059881898268406941EAD7
:101AE0000241039A02EBC000C0F84412FFE70598D8
:101AF0008069002809D1FFE704980399D1F80422EE
:101B000022EA0000C1F8040207E004980399D1F822
:101B100004221043C1F80402FFE705980069002879
:101B200009D1FFE704980399D1F8142222EA0000B2
:101B3000C1F8140207E004980399D1F81422104365
:101B4000C1F81402FFE70598006A012808D1FFE7F1
:101B500004980399D1F81C221043C1F81C02FFE736
:101B60000398D0F8001221F00101C0F80012002003
:101B70008DF81F0008E00698416A41F48021416217
:101B800001208DF81F00FFE79DF81F0008B0704787
:101B900082B001460190009102B07047B0B58AB0A2
:101BA0009C4696460C46054608900791069205937A
:101BB000089890F820008DF813009DF81300012874
:101BC000CDF80CC0CDF808E00194009506D0FFE7F1
:101BD0009DF81300022840F0ED80FFE707980028E9
:101BE00011D1FFE708980068C06810F0030F09D111
:101BF000FFE70898416A41F40011416201208DF825
:101C00002700E0E010E008980068006910F0030F7A
:101C100009D1FFE70898416A41F4001141620120AF
:101C20008DF82700CFE0FFE708980068079900EBE0
:101C30000110D0F8B00100F0040006998860069801
:101C4000806800280BD1FFE708980068079900EB2F
:101C50000110D0F8B001400D069908600AE008981C
:101C60000068079900EB0110D0F8B001C008069990
:101C70004860FFE708980068079900EB0110D0F86A
:101C8000B00100F002000699C86008980068079942
:101C900000EB0110D0F8B40100F00F00082804D3C5
:101CA000FFE70698082101610BE008980068079992
:101CB00000EB0110D0F8B40100F00F0006990861A4
:101CC000FFE708980068079900EB0110D0F8B4010D
:101CD000C0F307200699886108980068079900EB0F
:101CE0000110D0F8B401000C06994861089800680A
:101CF000079900EB0110D0F8B80105990870089811
:101D00000068079900EB0110D0F8B801000A0599A6
:101D1000487008980068079900EB0110D0F8B801E6
:101D2000000C0599887008980068079900EB01106D
:101D3000D0F8B801000E0599C87008980068079996
:101D400000EB0110D0F8BC010599087108980068F3
:101D5000079900EB0110D0F8BC01000A0599487101
:101D600008980068079900EB0110D0F8BC01000C3E
:101D70000599887108980068079900EB0110D0F860
:101D8000BC01000E0599C8710798002807D1FFE72C
:101D900008980068C16841F02001C16006E0089819
:101DA0000068016941F020010161FFE700208DF822
:101DB000270008E00898416A41F48021416201202F
:101DC0008DF82700FFE79DF827000AB0B0BD00009E
:101DD00084B00146039000200290039890F8200000
:101DE0008DF807009DF807000128009105D0FFE756
:101DF0009DF80700022822D1FFE703980068806859
:101E000010F0806F04D0FFE7029801300290FFE7E6
:101E100003980068806810F0006F04D0FFE7029814
:101E200001300290FFE703980068806810F0805F3F
:101E300004D0FFE7029801300290FFE7FFE7029825
:101E400004B0704780B58AB0014609900020089020
:101E500009980068406907900998006840680690F2
:101E6000099800688068059009980068C068049027
:101E700009980068006903900998006880690290D9
:101E80009DF81C00C0070028019100F09780FFE733
:101E90009DF81400C00700282BD0FFE709980068C0
:101EA000012181609DF814008007002804D5FFE718
:101EB000099800F025FC1BE09DF81400400700285D
:101EC00005D5FFE7089840F4006008900FE09DF802
:101ED00014000007002805D5FFE7089840F480505B
:101EE000089003E0099800F005FCFFE7FFE7FFE733
:101EF000FFE79DF81500C00700282CD0FFE70998E0
:101F000000684FF4807181609DF8150080070028FB
:101F100004D5FFE7099800F0FFFB1BE09DF81500D2
:101F20004007002805D5FFE7089840F400500890C6
:101F30000FE09DF815000007002805D5FFE7089879
:101F400040F48040089003E0099800F0DFFBFFE7D1
:101F5000FFE7FFE7FFE79DF81600C00700282CD039
:101F6000FFE7099800684FF4803181609DF8160002
:101F70008007002804D5FFE7099800F0D9FB1BE093
:101F80009DF816004007002805D5FFE7089840F4A3
:101F9000004008900FE09DF816000007002805D5C6
:101FA000FFE7089840F48030089003E0099800F0BB
:101FB000B9FBFFE7FFE7FFE7FFE7FFE79DF81C003E
:101FC0000007002810D5FFE79DF81000C006002884
:101FD00009D5FFE7089840F4007008900998006858
:101FE0001021C160FFE7FFE79DF81C0040070028B3
:101FF0000FD5FFE79DF810000007002808D5FFE780
:10200000099800680821C160099800F0E5FAFFE727
:10201000FFE79DF81C00800700280CD5FFE7099812
:102020000068C06810F0030F04D0FFE7099800F0C3
:10203000D9FAFFE7FFE79DF81C004006002810D5FD
:10204000FFE79DF80C00C006002809D5FFE70898B7
:1020500040F4806008900998006810210161FFE752
:10206000FFE79DF81C00800600280FD5FFE79DF8CC
:102070000C000007002808D5FFE709980068082130
:102080000161099800F0DAFAFFE7FFE79DF81C000C
:10209000C00600280CD5FFE709980068006910F019
:1020A000030F04D0FFE7099800F0CEFAFFE7FFE73F
:1020B0009DF81E00800700280FD5FFE79DF8180047
:1020C000C006002808D5FFE7099800681021416084
:1020D000099800F0BFFAFFE7FFE79DF81E00C00770
:1020E00000280FD0FFE79DF818000007002808D54A
:1020F000FFE70998006808214160099800F01EFB7D
:10210000FFE7FFE79DF81D000006002840F18F80E3
:10211000FFE79DF818004007002840F18380FFE7A3
:102120009DF81D00C00700280BD0FFE79DF80800B0
:10213000C007002805D0FFE7089840F0010008908C
:10214000FFE79DF81D00800700280BD5FFE79DF8ED
:1021500008008007002805D5FFE7089840F0020036
:102160000890FFE79DF81D00400700280BD5FFE70A
:102170009DF808004007002805D5FFE7089840F0C3
:1021800004000890FFE79DF81D000007002848D5CF
:10219000FFE79DF8080010F0700F42D0FFE70298AB
:1021A00000F0700001461028009114D0FFE700985D
:1021B000202815D0FFE70098302816D0FFE70098B8
:1021C000402817D0FFE70098502818D0FFE7009864
:1021D000602819D01DE0089840F00800089019E028
:1021E000089840F01000089014E0089840F0200093
:1021F00008900FE0089840F0400008900AE0089826
:1022000040F08000089005E0089840F48070089045
:1022100000E0FFE709980068816921F070018161A1
:10222000FFE7FFE70998006804214160FFE708988D
:10223000002809D0FFE7089809994A6A10434862C4
:102240000998FFF7A5FCFFE70AB080BD80B584B010
:102250000146029002980028009104D1FFE7012076
:102260008DF80F00E6E0029890F82000002804D1D5
:10227000FFE7029800F0E2F8FFE7029800680168C3
:1022800041F00101016000F08BFC0190FFE7029832
:102290000068406810F0010F17D1FFE700F080FCE4
:1022A000DDF804E0A0EB0E000B280DD3FFE7029849
:1022B000416A41F4003141620298052180F8201002
:1022C00001208DF80F00B5E0E1E702980068016891
:1022D00021F00201016000F063FC0190FFE7029829
:1022E0000068406810F0020F17D0FFE700F058FCBC
:1022F000DDF804E0A0EB0E000B280DD3FFE70298F9
:10230000416A41F4003141620298052180F82010B1
:1023100001208DF80F008DE0E1E70298007E012892
:1023200007D1FFE702980068016841F08001016071
:1023300006E002980068016821F080010160FFE773
:102340000298407E012807D1FFE7029800680168E3
:1023500041F04001016006E002980068016821F048
:1023600040010160FFE70298807E012807D1FFE766
:1023700002980068016841F02001016006E00298BF
:102380000068016821F020010160FFE70298C07E2B
:10239000012807D1FFE702980068016821F01001C9
:1023A000016006E002980068016841F010010160D8
:1023B000FFE70298007F012807D1FFE70298006835
:1023C000016841F00801016006E0029800680168B8
:1023D00021F008010160FFE70298407F012807D142
:1023E000FFE702980068016841F00401016006E01F
:1023F00002980068016821F004010160FFE702987B
:10240000016842688368D0F80CC043EA0C03D0F836
:1024100010C043EA0C0340691843013A1043C861F5
:102420000298002141620298012280F820208DF854
:102430000F10FFE79DF80F0004B080BD80B596B087
:102440000146159000201490139012901190109056
:102450001598006846F20042C4F2000290420A91C8
:102460004CD1FFE740F27000C2F200000168013178
:1024700001600068012813D1FFE7FFE700200F90FB
:1024800043F64000C4F20200016841F000710160AF
:10249000006800F000700F900F980990FFE7FFE7C9
:1024A000FFE700200E9043F63000C4F202000168FE
:1024B00041F008010160006800F008000E900E98DD
:1024C0000890FFE703201090022111910021129142
:1024D00013900920149040F60040C4F2020010AAA4
:1024E0000791114600F058F9142006900799079AB1
:1024F00000F03CFC069800F02DFC6AE0159800689E
:1025000046F60001C4F20001884261D1FFE7FFE70F
:1025100000200D9043F64000C4F20200016841F033
:1025200080610160006800F080600D900D9805905A
:10253000FFE740F27000C2F2000001680131016063
:102540000068012813D1FFE7FFE700200C9043F655
:102550004000C4F20200016841F0007101600068AF
:1025600000F000700C900C980490FFE7FFE7FFE785
:1025700000200B9043F63000C4F20200016841F0E5
:1025800002010160006800F002000B900B980390BC
:10259000FFE74FF44050109002201190002012905D
:1025A000032113910921149140F20041C4F2020168
:1025B00010AA02900846114600F0EEF84020019063
:1025C0000299029A00F0D2FB019800F0C3FBFFE7EA
:1025D000FFE716B080BD000082B001460190009177
:1025E00002B0704780B58CB001460B900B9800226A
:1025F00004AB0DF1080C019111461A466346FFF732
:10260000CDFA0499B1F5027F009013D1FFE79DF850
:1026100008009DF8091041EA002040F25C11C2F266
:10262000000148809DF80A009DF80B2042EA002036
:10263000088000E0FFE70CB080BD000082B00146DA
:102640000190009102B0704782B001460190009164
:1026500002B0704782B001460190009102B070470D
:1026600080B584B001460290029890F820000128BD
:10267000009132D1FFE70298022180F820100298E1
:102680000068016821F00101016000F089FA019001
:10269000FFE702980068406810F0010F17D0FFE7CD
:1026A00000F07EFADDF804E0A0EB0E000B280DD35D
:1026B000FFE70298416A41F4003141620298052126
:1026C00080F8201001208DF80F000FE0E1E702985C
:1026D000002141628DF80F1008E00298416A41F430
:1026E0000021416201208DF80F00FFE79DF80F00E7
:1026F00004B080BD82B001460190009102B07047E5
:1027000082B001460190009102B0704782B001464C
:102710000190009102B0704782B001460190009193
:1027200002B0704782B001460190009102B070473C
:1027300082B001460190009102B0704782B001461C
:102740000190009102B0704780B584B001460390BB
:10275000009100F025FA0290039801900198013051
:10276000002809D0FFE740F20400C2F20000007820
:10277000019908440190FFE7FFE700F011FADDF846
:1027800008E0A0EB0E00DDF804E0704501D2FFE7A1
:10279000F3E704B080BD000093B00A4603461290F0
:1027A000119100200F900E900D9010900B920A93B3
:1027B000FFE710980F2800F2F181FFE71098012140
:1027C00001FA00F00F90119800680F9908400E90E0
:1027D0000E980F99884240F0DC81FFE7119840681D
:1027E00000F00300012807D0FFE71198406800F0CF
:1027F000030002282FD1FFE7129880680D901098EF
:102800004000032101FA00F00D9921EA00000D902B
:102810001198C0681099490088400D9908430D909F
:102820000D9812998860129840680D9010980121B7
:1028300001FA00F00D9921EA00000D90119840680E
:10284000C0F30010109988400D9908430D900D9821
:1028500012994860FFE71198406800F003000328D0
:1028600018D0FFE71298C0680D901098400003211F
:1028700001FA00F00D9921EA00000D90119880688E
:102880001099490088400D9908430D900D981299B0
:10289000C860FFE71198406800F00300022828D1C3
:1028A000FFE7129810994FF6FC72C7F6FF7202EA22
:1028B00051010844006A0D90109800F00700800054
:1028C0000F2101FA00F00D9921EA00000D901198F6
:1028D0000069109901F00701890088400D990843AB
:1028E0000D900D981299109B02EA53021144086250
:1028F000FFE7129800680D9010984000032101FA3C
:1029000000F00D9921EA00000D901198406800F048
:1029100003001099490088400D9908430D900D98C7
:1029200012990860119880798007002800F03081A2
:10293000FFE7FFE700200C9043F64400C4F20200DA
:10294000016841F480410160006800F480400C900F
:102950000C980990FFE7109820F0030043F6080157
:10296000C4F2010140580D90109800F0030080005F
:102970000F2101FA00F00D9921EA00000D90129844
:102980000021C4F20201884203D1FFE70020089031
:102990007AE0129840F20041C4F20201884203D169
:1029A000FFE7012007906CE0129840F60001C4F2A6
:1029B0000201884203D1FFE7022006905EE01298F0
:1029C00040F60041C4F20201884203D1FFE7032030
:1029D000059050E0129841F20001C4F202018842D1
:1029E00003D1FFE70420049042E0129841F2004135
:1029F000C4F20201884203D1FFE70520039034E0CE
:102A0000129841F60001C4F20201884203D1FFE7A7
:102A10000620029026E0129841F60041C4F202011D
:102A2000884203D1FFE70720019018E0129842F294
:102A30000001C4F20201884203D1FFE708200090A0
:102A40000AE0129842F20041C4F202010A228842CE
:102A500008BF09220092FFE700980190FFE7019864
:102A60000290FFE702980390FFE703980490FFE7C6
:102A700004980590FFE705980690FFE706980790F1
:102A8000FFE707980890FFE70898C0B2109901F097
:102A90000301890088400D9908430D900D98109905
:102AA00021F0030143F60802C4F20102885043F604
:102AB0000840C4F2010000680D900E980D9921EABB
:102AC00000000D9011988079C006002805D5FFE719
:102AD0000E980D9908430D90FFE70D9843F60841B5
:102AE000C4F20101086043F60C40C4F20100006822
:102AF0000D900E980D9921EA00000D9011988079A3
:102B00008006002805D5FFE70E980D9908430D9023
:102B1000FFE70D9843F60C41C4F20101086043F64B
:102B20000440C4F2010000680D900E980D9921EA4E
:102B300000000D90119880798007002805D5FFE7E7
:102B40000E980D9908430D90FFE70D9843F6044148
:102B5000C4F20101086043F60040C4F201000068BD
:102B60000D900E980D9921EA00000D901198807932
:102B7000C007002805D0FFE70E980D9908430D9077
:102B8000FFE70D9843F60041C4F201010860FFE73A
:102B9000FFE7FFE71098013010900AE613B0704786
:102BA00040F2BC10C2F200000068704740F204001E
:102BB000C2F20000007840F2BC11C2F200010A68C3
:102BC000104408607047000080B582B043F60040B2
:102BD000C4F20200016841F400710160016841F42F
:102BE00080610160016841F480710160032000F0A0
:102BF000E1F80F2000F006F8019000F083F80020C3
:102C000002B080BD80B590B001460F9000200890C2
:102C100007900391FFE70020049043F64000C4F2C0
:102C20000200016841F080010160006800F080004E
:102C3000049004980290FFE70AA806A900F064FA3D
:102C40000D9808900898002804D1FFE700F096FA44
:102C5000099004E000F092FA40000990FFE709981B
:102C60004DF68361C4F21B31A0FB01014FF0FF322E
:102C700002EB9141079140F2CC01C2F2000141F612
:102C80000042C4F200020A6040F2E732CA60079ACA
:102C90004A6000220A618A608A610190084600F059
:102CA00095FE8DF817009DF81700002826D1FFE744
:102CB00040F2CC00C2F2000000F0E4FE8DF81700F4
:102CC0009DF81700002818D1FFE72C2000F042F8EB
:102CD0000F980F280CD8FFE70F992C20002200F046
:102CE00045F80F9840F20801C2F20001086003E0C5
:102CF00001208DF81700FFE7FFE7FFE79DF81700B9
:102D000010B080BD84B0FFE70020039043F644007C
:102D1000C4F20200016841F480410160006800F4DF
:102D20008040039003980190FFE7FFE700200290A6
:102D300043F64000C4F20200016841F08051016096
:102D4000006800F08050029002980090FFE704B005
:102D50007047000080B582B001468DF807009DF9EC
:102D60000700009102F03AF802B080BD80B58AB049
:102D700013468C4686468DF827000891079200205E
:102D800006900593CDF810C0CDF80CE002F042F8A3
:102D9000069006980899079A9DF92730029301F04A
:102DA00039FA029901900846019902F03BF80AB0FD
:102DB00080BD000080B582B001460190019800916D
:102DC00002F056F802B080BD80B584B000200290B9
:102DD000FFE70020019043F64000C4F202000168C2
:102DE00041F080510160006800F08050019001982E
:102DF0000090FFE74020C4F20E2001210160FFF7A0
:102E0000CFFE0290FFE747F20400C4F20000006822
:102E100000F48030B0F5803F0FD0FFE7FFF7C0FE31
:102E2000DDF808E0A0EB0E00B0F57A7F04D9FFE7EB
:102E300003208DF80F0027E0E5E74420C4F20E20C0
:102E400001210160FFF7ACFE0290FFE747F20400AA
:102E5000C4F20000006800F40030B0F5003F0FD06D
:102E6000FFE7FFF79DFEDDF808E0A0EB0E00B0F5F0
:102E70007A7F04D9FFE703208DF80F0004E0E5E72F
:102E800000208DF80F00FFE79DF80F0004B080BD13
:102E900080B588B00A46034606900591069800283A
:102EA0000392029304D1FFE701208DF81F0026E171
:102EB000059843F60041C4F20201096801F00F01D0
:102EC000884212D9FFE7059843F60041C4F2020197
:102ED0000870086800F00F000599884204D0FFE7E9
:102EE00001208DF81F000AE1FFE7069800688007BF
:102EF00000282AD5FFE7069800684007002809D572
:102F0000FFE743F60800C4F20200016841F4E05113
:102F10000160FFE7069800680007002809D5FFE771
:102F200043F60800C4F20200016841F46041016008
:102F3000FFE743F60800C4F20200016821F0F00147
:102F4000069A926811430160FFE706980068C0077F
:102F5000002870D0FFE706984068012811D1FFE7EC
:102F600043F60000C4F20200006800F400300021C3
:102F7000B1EB504F04D1FFE701208DF81F00BEE0F8
:102F80002CE006984068022805D0FFE706984068C4
:102F9000032811D1FFE743F60000C4F202000068E5
:102FA00000F000700021B1EB506F04D1FFE7012069
:102FB0008DF81F00A3E010E043F60000C4F2020009
:102FC000006800F002000021B1EB500F04D1FFE7D0
:102FD00001208DF81F0092E0FFE7FFE743F60800AD
:102FE000C4F20200016821F00301069A52681143FD
:102FF0000160FFF7D5FD0490FFE743F60800C4F237
:103000000200006800F00C0006994968B0EB810FDF
:1030100010D0FFE7FFF7C4FDDDF810E0A0EB0E00D5
:1030200041F2893E704504D3FFE703208DF81F006D
:1030300065E0E2E7FFE7059843F60041C4F20201CC
:10304000096801F00F01884212D2FFE7059843F6A4
:103050000041C4F202010870086800F00F000599F1
:10306000884204D0FFE701208DF81F0047E0FFE70A
:1030700006980068400700280CD5FFE743F60800D3
:10308000C4F20200016821F4E051069AD2681143AB
:103090000160FFE706980068000700280DD5FFE7EC
:1030A00043F60800C4F20200016821F46041069A68
:1030B000126941EAC2010160FFE700F087F843F6B8
:1030C000080EC4F2020EDEF800E0CEF3031E45F651
:1030D0008801C0F6000111F80E10C84040F200014E
:1030E000C2F20001086040F20800C2F2000000686D
:1030F000FFF788FD00218DF81F100190FFE79DF874
:103100001F0008B080BD000084B00A46034603904B
:10311000029103980F21016043F60800C4F20200F7
:10312000016801F00301DDF80CC0CCF8041001685F
:1031300001F0F001DDF80CC0CCF80810016801F4D2
:10314000E051DDF80CC0CCF80C10006800F46040D1
:10315000C0080399086143F60040C4F20200006809
:1031600000F00F00029908600192009304B07047CC
:1031700040F20000C2F200000068704780B5FFF71F
:10318000F7FF43F6080EC4F2020EDEF800E0CEF3BD
:10319000822E45F69801C0F6000111F80E10C840C5
:1031A00080BD000080B5FFF7E3FF43F6080EC4F2D0
:1031B000020EDEF800E0CEF3423E45F69801C0F67E
:1031C000000111F80E10C84080BD000080B586B027
:1031D0000020059004900390029043F60800C4F28A
:1031E0000200006800F00C0001460028019108D0A0
:1031F000FFE7019804280AD0FFE7019808280CD0BF
:103200004FE042F20040C0F2F40002904FE041F67D
:103210000030C0F2B700029049E043F60400C4F267
:103220000200016801F03F010591006810F4800F71
:1032300013D0FFE743F60400C4F202000068C0F3B5
:10324000881041F60031C0F2B701A0FB0101059AD8
:103250000023FDF779F8049012E043F60400C4F26D
:1032600002000068C0F3881042F20041C0F2F4018D
:10327000A0FB0101059A0023FDF766F80490FFE723
:1032800043F60400C4F20200006800F4403002215A
:1032900001EBD030039004980399B0FBF1F0029059
:1032A00005E042F20040C0F2F4000290FFE702980D
:1032B00006B080BD80B588B001460690069800280B
:1032C000019104D1FFE701208DF81F006EE30698FD
:1032D0000068C007002800F0AB80FFE743F6080055
:1032E000C4F20200006800F00C00042813D0FFE7CD
:1032F00043F60800C4F20200006800F00C00082841
:103300001FD1FFE743F60400C4F20200006810F486
:10331000800F16D0FFE743F60000C4F202000068F9
:1033200000F400300021B1EB504F09D0FFE70698C0
:103330004068002804D1FFE701208DF81F0035E325
:1033400075E0FFE706984068B0F5803F09D1FFE7D8
:1033500043F60000C4F20200016841F480310160CC
:1033600020E006984068B0F5A02F0DD1FFE743F6A6
:103370000000C4F20200016841F48021016001688C
:1033800041F4803101600CE043F60000C4F2020019
:10339000016821F480310160016821F4802101601D
:1033A000FFE7FFE7FFE70698406800281FD0FFE728
:1033B000FFF7F6FB0590FFE743F60000C4F20200BA
:1033C000006800F400300021B1EB504F0ED1FFE750
:1033D000FFF7E6FBDDF814E0A0EB0E00652804D350
:1033E000FFE703208DF81F00E0E2E5E71EE0FFF7AE
:1033F000D7FB0590FFE743F60000C4F20200006827
:1034000000F400300021B1EB504F0ED0FFE7FFF782
:10341000C7FBDDF814E0A0EB0E00652804D3FFE73E
:1034200003208DF81F00C1E2E5E7FFE7FFE7FFE7B4
:10343000069800688007002840F19B80FFE743F66C
:103440000800C4F20200006810F00C0F13D0FFE770
:1034500043F60800C4F20200006800F00C000828DF
:103460002CD1FFE743F60400C4F20200006810F418
:10347000800F23D1FFE743F60000C4F2020000688A
:1034800000F002000021B1EB500F09D0FFE70698D1
:10349000C068012804D0FFE701208DF81F0085E2F5
:1034A00043F60000C4F20200016821F0F801069A18
:1034B000126941EAC2010160FFE759E00698C0685D
:1034C000002830D0FFE70020C4F24720012101602E
:1034D000FFF766FB0590FFE743F60000C4F2020029
:1034E000006800F002000021B1EB500F0ED1FFE7A1
:1034F000FFF756FBDDF814E0A0EB0E00032804D321
:10350000FFE703208DF81F0050E2E5E743F60000D7
:10351000C4F20200016821F0F801069A126941EA3A
:10352000C201016023E00020C4F2472000210160B5
:10353000FFF736FB0590FFE743F60000C4F20200F8
:10354000006800F002000021B1EB500F0ED0FFE741
:10355000FFF726FBDDF814E0A0EB0E00032804D3F0
:10356000FFE703208DF81F0020E2E5E7FFE7FFE714
:10357000FFE7069800680007002850D5FFE7069887
:103580004069002825D0FFE740F68060C4F247205C
:1035900001210160FFF704FB0590FFE743F674008B
:1035A000C4F20200006800F002000021B1EB500FED
:1035B0000ED1FFE7FFF7F4FADDF814E0A0EB0E0000
:1035C000032804D3FFE703208DF81F00EEE1E5E7B1
:1035D00024E040F68060C4F2472000210160FFF73C
:1035E000DFFA0590FFE743F67400C4F202000068BA
:1035F00000F002000021B1EB500F0ED0FFE7FFF703
:10360000CFFADDF814E0A0EB0E00032804D3FFE7A7
:1036100003208DF81F00C9E1E5E7FFE7FFE7069803
:1036200000684007002840F1D680FFE700208DF8B1
:103630000F0043F64000C4F20200006810F0805F03
:1036400016D1FFE7FFE70020029043F64000C4F2E6
:103650000200016841F080510160006800F0805074
:10366000029002980090FFE701208DF80F00FFE71D
:1036700047F20000C4F20000006810F4807F24D1FB
:10368000FFE747F20000C4F20000016841F48071D6
:103690000160FFF785FA0590FFE747F20000C4F2EA
:1036A0000000006810F4807F0ED1FFE7FFF778FA82
:1036B000DDF814E0A0EB0E00032804D3FFE703209D
:1036C0008DF81F0072E1E8E7FFE7FFE706988068E2
:1036D000012809D1FFE743F67000C4F20200016837
:1036E00041F0010101601FE00698806805280DD1B6
:1036F000FFE743F67000C4F20200016841F00401E4
:103700000160016841F0010101600CE043F67000C6
:10371000C4F20200016821F001010160016821F09A
:1037200004010160FFE7FFE7FFE7069880680028D3
:1037300021D0FFE7FFF734FA0590FFE743F670006A
:10374000C4F20200006800F002000021B1EB500F4B
:1037500010D1FFE7FFF724FADDF814E0A0EB0E002C
:1037600041F2893E704504D3FFE703208DF81F0026
:103770001CE1E3E720E0FFF713FA0590FFE743F6CB
:103780007000C4F20200006800F002000021B1EBFA
:10379000500F10D0FFE7FFF703FADDF814E0A0EBBD
:1037A0000E0041F2893E704504D3FFE703208DF8F7
:1037B0001F00FBE0E3E7FFE79DF80F00012809D1B8
:1037C000FFE743F64000C4F20200016821F0805197
:1037D0000160FFE7FFE706988069002800F0E280BB
:1037E000FFE743F60800C4F20200006800F00C0096
:1037F000082800F08B80FFE706988069022860D1D6
:10380000FFE76020C4F2472000210160FFF7C8F9FC
:103810000590FFE743F60000C4F20200006800F0E4
:1038200000700021B1EB506F0ED0FFE7FFF7B8F941
:10383000DDF814E0A0EB0E00032804D3FFE703201B
:103840008DF81F00B2E0E5E70698C169026A436A95
:10385000D0F828C0114341EA83114FEACC324FF629
:10386000FF739A43A2F580321143C06A41EA0060B7
:1038700043F60401C4F2020108606020C4F247204C
:1038800001210160FFF78CF90590FFE743F6000086
:10389000C4F20200006800F000700021B1EB506F2C
:1038A0000ED1FFE7FFF77CF9DDF814E0A0EB0E0086
:1038B000032804D3FFE703208DF81F0076E0E5E737
:1038C00023E06020C4F2472000210160FFF768F97F
:1038D0000590FFE743F60000C4F20200006800F024
:1038E00000700021B1EB506F0ED0FFE7FFF758F9E1
:1038F000DDF814E0A0EB0E00032804D3FFE703205B
:103900008DF81F0052E0E5E7FFE74AE0069880697E
:10391000012804D1FFE701208DF81F0046E043F69F
:103920000400C4F20200006804900698806901282F
:1039300031D0FFE7049800F480000699C9698842F5
:1039400029D1FFE7049800F03F000699096A8842F0
:1039500021D1FFE7049847F6C07108400699496AEB
:10396000B0EB811F17D1FFE7049800F440300699AF
:10397000896AC9034FF6FF729143A1F580318842ED
:1039800009D1FFE7049800F070600699C96AB0EBAE
:10399000016F04D0FFE701208DF81F0006E0FFE76C
:1039A000FFE7FFE700208DF81F00FFE79DF81F00ED
:1039B00008B080BD82B001460190009102B070470E
:1039C00082B001460190009102B0704780B584B08A
:1039D0000146029002980028019104D1FFE70120DE
:1039E0008DF80F0043E0029890F83D00002808D1C0
:1039F000FFE70298002180F83C10029800F03CF8A4
:103A0000FFE70298022180F83D10029850F8041B4D
:103A100000900846009900F0BFFC0298012180F850
:103A20004610FFE70298012180F83E10029880F8C6
:103A30003F10029880F84010029880F84110FFE78C
:103A4000FFE70298012180F84210029880F84310A5
:103A5000029880F84410029880F84510FFE7029819
:103A6000012180F83D1000208DF80F00FFE79DF840
:103A70000F0004B080BD000082B0014601900091AB
:103A800002B0704784B001460290029890F83D0061
:103A90000128009104D0FFE701208DF80F006AE0B3
:103AA0000298022180F83D1002980068C16841F038
:103AB0000101C160029800680021C4F2010188423E
:103AC0003CD0FFE702980068B0F1804F36D0FFE7A6
:103AD0000298006840F20041C4F2000188422DD0F3
:103AE000FFE70298006840F60001C4F20001884236
:103AF00024D0FFE70298006840F60041C4F20001BC
:103B000088421BD0FFE70298006840F20041C4F2EF
:103B10000101884212D0FFE70298006844F20001D8
:103B2000C4F20101884209D0FFE70298006841F61B
:103B30000001C4F20001884212D1FFE70298006838
:103B4000806800F0070001900198062807D0FFE781
:103B500002980068016841F001010160FFE706E09A
:103B600002980068016841F001010160FFE7002050
:103B70008DF80F00FFE79DF80F0004B070470000BC
:103B800082B001460190009102B0704780B584B0C8
:103B90000146039003980068C0680290039800688B
:103BA00000690190019880070028009124D5FFE763
:103BB0000298800700281ED5FFE7039800686FF081
:103BC000020101610398012101770398006880696F
:103BD00010F0030F04D0FFE70398FFF7D1FF06E0D2
:103BE000039800F0D7F8039800F0DAF8FFE703989D
:103BF00000210177FFE7FFE701984007002824D55F
:103C0000FFE70298400700281ED5FFE703980068E9
:103C10006FF00401016103980221017703980068A5
:103C2000806910F4407F04D0FFE70398FFF7A8FFF6
:103C300006E0039800F0AEF8039800F0B1F8FFE753
:103C4000039800210177FFE7FFE7019800070028AC
:103C500024D5FFE70298000700281ED5FFE7039848
:103C600000686FF00801016103980421017703984F
:103C70000068C06910F0030F04D0FFE70398FFF756
:103C80007FFF06E0039800F085F8039800F088F8BD
:103C9000FFE7039800210177FFE7FFE70198C006DF
:103CA000002824D5FFE70298C00600281ED5FFE7AC
:103CB000039800686FF010010161039808210177F3
:103CC00003980068C06910F4407F04D0FFE70398B0
:103CD000FFF756FF06E0039800F05CF8039800F049
:103CE0005FF8FFE7039800210177FFE7FFE70198FE
:103CF000C00700280FD0FFE70298C007002809D0AE
:103D0000FFE7039800686FF001010161039800F07C
:103D10004DF8FFE7FFE70198000600280FD5FFE701
:103D200002980006002809D5FFE7039800686FF0A5
:103D3000800101610398FFF73DFEFFE7FFE701986F
:103D4000400600280FD5FFE702984006002809D555
:103D5000FFE7039800686FF040010161039800F0ED
:103D600039F8FFE7FFE70198800600280FD5FFE745
:103D700002988006002809D5FFE7039800686FF0D5
:103D8000200101610398FFF71BFEFFE7FFE704B086
:103D900080BD000082B001460190009102B07047E2
:103DA00082B001460190009102B0704780B582B0A8
:103DB000014601900198006841F60042C4F20002F9
:103DC0009042009103D1FFE7FEF7F0FEFFE702B05B
:103DD00080BD000082B001460190009102B07047A2
:103DE00080B584B00146029002980028019104D168
:103DF000FFE701208DF80F0043E00298806900285A
:103E000001D0FFE700E0FFE7029890F841000028AA
:103E100008D1FFE70298002180F84010029800F0D6
:103E200035F8FFE70298242180F8411002980068D5
:103E3000C16821F40051C160029800F0D7FB0298DC
:103E40000068016921F490410161029800684169AC
:103E500021F02A01416102980068C16841F40051D3
:103E6000C16002980021416402984FF0200E80F852
:103E700041E0029880F842E0029841638DF80F100B
:103E8000FFE79DF80F0004B080BD000080B58CB046
:103E900001460B9000200A90099008900790069028
:103EA0000B98006847F60002C4F2000290420391AA
:103EB00037D1FFE7FFE70020059043F64000C4F24A
:103EC0000200016841F080410160006800F080401C
:103ED000059005980290FFE7FFE70020049043F665
:103EE0003000C4F20200016841F010010160006876
:103EF00000F01000049004980190FFE74FF4C070A8
:103F000006900220079000200890032009900820C6
:103F10000A9041F20000C4F2020006A9FEF73CFC40
:103F2000FFE70CB080BD0000B0B58EB09C46964651
:103F30000C4605460C900B91ADF82A200993002001
:103F400006900C9890F841002028CDF814C0CDF8C8
:103F500010E00394029540F08880FFE70B9800285A
:103F600005D0FFE7BDF82A00002804D1FFE70120B3
:103F70008DF837007DE00C98002141640C982121D8
:103F800080F84110FEF70CFE0690BDF82A000C994F
:103F90008884BDF82A000C99C8840C988068B0F514
:103FA000805F0AD1FFE70C980069002805D1FFE780
:103FB000002008900B98079004E00B9808900020D0
:103FC0000790FFE7FFE70C98C08C002831D0FFE78F
:103FD0000C98069B09996A4611608021002200F026
:103FE000B9FB002808D0FFE70C98202180F8411089
:103FF00003208DF837003CE0089800280BD1FFE73C
:10400000079800886FF35F200C990968486007984B
:104010000230079008E0089800780C990968486019
:10402000089801300890FFE70C98C18C0139C184D1
:10403000C9E70C98069B09996A4611604021002245
:1040400000F088FB002808D0FFE70C98202180F8BA
:10405000411003208DF837000BE00C98202180F8E8
:10406000411000208DF8370003E002208DF8370062
:10407000FFE79DF837000EB0B0BD0000FFE7FEE798
:1040800080B540F27C00C2F2000046F20041C4F26A
:10409000000101600521416000218160C1604FF491
:1040A000003202614FF480024261017601224276C1
:1040B0008176C27601774177FEF7C8F8002803D0F1
:1040C000FFE7FDF79BFBFFE780BD000080B540F2F6
:1040D000A400C2F2000046F60001C4F20001016033
:1040E0000521416000218160C1604FF4003202610E
:1040F0004FF480024261017641768176C176017784
:104100004177FEF7A3F8002803D0FFE7FDF776FB21
:10411000FFE780BD8AB0FFE70020099043F630003A
:10412000C4F20200016841F001010160006800F082
:104130000100099009980490FFE7FFE7002008902C
:1041400043F63000C4F20200016841F0080101604A
:10415000006800F00800089008980390FFE7FFE768
:104160000020079043F63000C4F20200016841F0DD
:1041700080010160006800F08000079007980290BD
:10418000FFE7FFE70020069043F63000C4F202008C
:10419000016841F010010160006800F01000069015
:1041A00006980190FFE7FFE70020059043F63000F6
:1041B000C4F20200016841F002010160006800F0F1
:1041C0000200059005980090FFE70AB070470000D4
:1041D00080B540F21410C2F2000047F60001C4F2AC
:1041E000000101604FF4E131416000218160C16054
:1041F00001610C2242618161C161FFF7F1FD00287C
:1042000003D0FFE7FDF7FAFAFFE780BDFFE7FEE71F
:10421000FFE7FEE780B58BB013468C4686460A90D2
:10422000099108920A9800F0070007900798C0F1DA
:10423000070005280493CDF80CC0CDF808E003D39F
:10424000FFE70420019004E00798C0F10700019007
:10425000FFE70198069007980430062803D8FFE787
:104260000020009003E0079803380090FFE70098D3
:10427000059009980699012202FA01F101390840D6
:1042800005998840089B02FA01F101391940084359
:104290000BB080BD70470000704700007047000001
:1042A00080B596B00AA83021FCF7F7F800200990F5
:1042B0000890079006900590FFE70020049043F6D1
:1042C0004000C4F20200016841F0805101600068C2
:1042D00000F08050049004980290FFE7FFE7002070
:1042E000039047F20000C4F20000016841F440412D
:1042F0000160006800F44040039003980190FFE7DC
:1043000001200A904FF480300B90022010904FF45F
:104310008001119106211291B4211391149004206F
:1043200015900AA8FEF7C6FF002803D0FFE7FDF7A7
:1043300065FAFFE7FEF748FD002803D0FFE7FDF729
:104340005DFAFFE70F2005900220069000200790FD
:104350004FF4A05008904FF48050099005A8052113
:10436000FEF796FD002803D0FFE7FDF747FAFFE7C9
:1043700016B080BD4EF68850CEF20000016841F4C0
:10438000700101607047000080B540F2CC00C2F2BD
:104390000000FFF7FBFB80BD85B00A460346049092
:1043A000039104980068029004980021C4F201016E
:1043B00088420192009325D0FFE70498B0F1804F26
:1043C00020D0FFE7049840F20041C4F20001884287
:1043D00018D0FFE7049840F60001C4F200018842BB
:1043E00010D0FFE7049840F60041C4F20001884273
:1043F00008D0FFE7049840F20041C4F2010188426E
:104400000AD1FFE7029820F07000029003984068FC
:10441000029908430290FFE704980021C4F20101C9
:10442000884255D0FFE70498B0F1804F50D0FFE7A5
:10443000049840F20041C4F20001884248D0FFE7EE
:10444000049840F60001C4F20001884240D0FFE722
:10445000049840F60041C4F20001884238D0FFE7DA
:10446000049840F20041C4F20101884230D0FFE7D5
:10447000049844F20001C4F20101884228D0FFE709
:10448000049844F20041C4F20101884220D0FFE7C1
:10449000049844F60001C4F20101884218D0FFE7F5
:1044A000049841F60001C4F20001884210D0FFE7F1
:1044B000049841F60041C4F20001884208D0FFE7A9
:1044C000049842F20001C4F2000188420AD1FFE7D9
:1044D000029820F4407002900398C0680299084343
:1044E0000290FFE7029820F0800003994969084391
:1044F0000290029804990860039880680499C86241
:10450000039800680499886204980021C4F20101AC
:10451000884208D0FFE7049840F20041C4F201014C
:10452000884205D1FFE70398006904990863FFE713
:104530000498012141610498006910F0010F06D030
:10454000FFE70498016921F001010161FFE705B06F
:104550007047000085B0014604900091FFE7FFE737
:104560000498006850E8030F20F490700390FFE770
:1045700003980499096841E80302002AF0D1FFE793
:10458000FFE7FFE7FFE70498006850E8050F20F019
:1045900001000290FFE702980499096841E80502CA
:1045A000002AF0D1FFE7FFE70498006B012814D13F
:1045B000FFE7FFE7FFE70498006850E8030F20F0EB
:1045C00010000190FFE701980499096841E803028F
:1045D000002AF0D1FFE7FFE7FFE70498202180F8E9
:1045E000421004980021016305B0704780B58CB07B
:1045F00001460B900B980068006920F440500B9A1C
:104600001368D268104318610B9882680369D0F868
:1046100014C0C0691A4342EA0C0210430A900B9876
:104620000068C06849F20C6290430A9A10430B9AE2
:104630001268D0600B980068406920F440700B9AB3
:1046400013689269104358610B98006841F20002A8
:10465000C4F201029042089109D0FFE70B9800686C
:1046600041F20041C4F20101884204D1FFE7FEF7A4
:1046700099FD099003E0FEF781FD0990FFE70B9893
:10468000C069B0F5004F31D1FFE709981921A0FBAF
:1046900001010B9A136852684FEA420CD20F07923D
:1046A0006246DDF81CC006936346FBF74DFE48F2F8
:1046B0001F51C5F2EB11A0FB01235B094FF0640C05
:1046C00003FB1C004FF0320C0CEBC000A0FB0101FF
:1046D0004FF4F87C0CEA111C0CEB0313C1F34211EC
:1046E0001943069B99600590049230E009981921BE
:1046F000A0FB01010B9A136852684FEA820C920FDB
:1047000003926246DDF80CC002936346FBF71CFE81
:1047100048F21F51C5F2EB11A0FB01235B094FF0DA
:10472000640C03FB1C004FF0320C0CEB0010A0FBE0
:1047300001014FF0F00C0CEA511C0CEB0313C1F318
:1047400043111943029B996001900092FFE70CB05E
:1047500080BD000070B58CB0DDF840C09E461446A8
:104760000D4606460A9009918DF823200793CDF84F
:1047700014E0049403950296CDF804C0FFE70A986C
:104780000068006809990840401AB0FA80F04009B2
:104790009DF82310884254D1FFE71098013000287B
:1047A0004ED0FFE7FEF7FCF9DDF81CE0A0EB0E00B1
:1047B000DDF840E0704504D8FFE71098002804D1E8
:1047C000FFE703208DF82F003FE00A980068C068DB
:1047D00010F0040F33D0FFE7099880282FD0FFE7AF
:1047E000099840282BD0FFE70A980068006800F07D
:1047F00008000121B1EBD00F20D1FFE7FFE7002037
:1048000006900A980068006806900A980068406858
:10481000069006980090FFE70A98FFF79BFE0A981B
:104820004FF0080EC0F844E0FFE70A98002180F836
:104830004010FFE701208DF82F0006E0FFE7FFE7BB
:104840009DE700208DF82F00FFE79DF82F000CB0AA
:1048500070BD0000FFE7FEE780B500F029FB80BDDA
:1048600083B080B5A1B02593249223910146209076
:1048700023A806902098069A0592059A07AB049003
:104880001846DDF810C0039161460293FBF7D4FD92
:10489000029901900846FBF7E1FD82B240F2141044
:1048A000C2F200004FF6FF730299FFF73DFB009044
:1048B00021B0BDE8804003B07047000080B58AB0E9
:1048C0000020009001900290039004900590012137
:1048D00007910690089140F27C00C2F20000694600
:1048E000FDF778F8002803D0FFE7FCF787FFFFE724
:1048F00040F27C00C2F20000FDF7B2FE002803D0B7
:10490000FFE7FCF77BFFFFE740F27C00C2F200000C
:104910000221FCF777FF002803D0FFE7FCF76EFFCA
:10492000FFE70AB080BD000080B58AB0B0EE412A32
:10493000B0EE603AB0EE404A014609908DED080AAB
:10494000CDED070A8DED061A099805908DED042A24
:104950008DED033A8DED024A019100F027F8089899
:1049600005994860079888600698C8600AB080BDBD
:1049700080B587B013468C468646069005918DF823
:1049800013200698059901609DF81310C9070029A6
:104990000393CDF808C0CDF804E0009004D0FFE701
:1049A000002000998861FFE707B080BD82B0014612
:1049B00001900198002202610260C26202634260BB
:1049C0008260C260426102624262826182620091E0
:1049D00002B0704786B00A460346059004910598D8
:1049E0000168DDF810C0A1EB0C0141614169D0F80C
:1049F00018C0614481614169D0F824C0ACEB010169
:104A00000162416941628169D0F81CC0614502922E
:104A10000193009004DDFFE70098C1698161FFE721
:104A200000988169C2695242914205DAFFE7009815
:104A3000C16949428161FFE7009890ED010A90ED5C
:104A4000021A90ED032A90ED053AB8EEC33A90EDC4
:104A5000064AB8EEC44A21EE041A00EE031A90ED9D
:104A6000080AB8EEC00A02EE001ABDEEC10A8DEDCA
:104A7000030A0399026B914204DDFFE70098016B82
:104A800003910AE003980099CA6A904204DAFFE7AA
:104A90000098C16A0391FFE7FFE703980099086156
:104AA000039806B07047000080B586B013468C4668
:104AB000864605900491039205980499C162039972
:104AC00001630293CDF804C0CDF800E006B080BDCC
:104AD0002DE9F0418CB0DDF850C0DDF84CE0129CBF
:104AE0001D4616460F468046CDF82CC0CDF828E06E
:104AF0000994089307920691059005989DED060A82
:104B0000DDED070A9DED081A09990A9A04900395AC
:104B100002960197CDF8008000F008F80B980499F0
:104B2000C86108460CB0BDE8F081000080B58EB0C9
:104B300013468C46B0EE412AB0EE603AB0EE404AE1
:104B400086460D908DED0C0ACDED0B0A8DED0A1AFF
:104B5000099108920D981921C1619DED0C0ADDEDB6
:104B60000B0A9DED0A1A07900693CDF814C08DED3F
:104B7000042A8DED033A8DED024ACDF804E0FFF7EB
:104B8000D3FE0999089A0798FFF78EFF07980EB091
:104B900080BD0000B0B58EB00A4603460D90ADF85A
:104BA00032100D98BDF83210090AD0F810C090F8F4
:104BB00014E0AEF1010E4FEAEE740EEB94744FF672
:104BC000FC75C7F6FF752C40AEEB040E0CF81E10FA
:104BD000BDF83210D0F810C090F814E0AEF1010E1C
:104BE0004FEAEE740EEB94742C40AEEB040E0CEB1B
:104BF0004E0C8CF80110017FC90700290492039321
:104C0000029029D0FFE70820099000200690029921
:104C10000A7DB0EB920F04D1FFE74FF400700590CE
:104C200003E040F2FF100590FFE700200790089096
:104C30008DF82800FFE702988069FDF7C9F8002881
:104C400001D1FFE7F7E702980269806905A90BAB7C
:104C5000FCF706FE0190FFE70EB0B0BD82B0014642
:104C60000190009102B0704770B589B0DDF834C092
:104C70009E4614460D46064608908DF81F10069273
:104C800005938DF813C008989DF81F1001750699BB
:104C90008161059901619DF8131001F0010101770F
:104CA000CDF80CE002940195009609B070BD0000AB
:104CB00082B0014601900198012202710022C4F2E3
:104CC000042282604CF6CD42C4F2B312C2600022CC
:104CD0000277009102B0704780B586B0B0EE401AFE
:104CE000014605908DED040A05989DED040A90EDAE
:104CF000022A90ED093A20EE020AB8EEC32A20EE0D
:104D0000020A80ED0A0A00F12C0290ED0A0ABDEEBB
:104D1000C00A10EE100A002303901046039A029175
:104D200011461A468DED011AFFF722FE06B080BD2E
:104D300080B584B001460390039801900091FFF77D
:104D40008DFF019830F92C1BFFF744FEADF80A00E7
:104D5000BDF90A100198FFF71DFF04B080BD0000E7
:104D6000B0B58CB001460B900B9804900391FFF7FF
:104D70009FFF01200499486201F12C0040F2000ECF
:104D8000C4F2A00ECDF814E04FF0804ECDF818E03C
:104D90004FF0000ECDF81CE04EF6784ECFF6FF7EB9
:104DA000CDF820E041F2883ECDF824E04FF4FA6ED1
:104DB000CDF828E00599069A079BDDF820E0DDF89C
:104DC00024C00A9C6D46AC60C5F804C0C5F800E07C
:104DD000FFF77EFE04980CB0B0BD000082B0014623
:104DE0008DF807009DF90700002800910FDBFFE711
:104DF0009DF9070000F01F01012202FA01F14009AC
:104E00004EF20012CEF2000242F82010FFE702B08C
:104E1000704700004EF60C50CEF200000068C0F360
:104E20000220704784B00A4603468DF80F000291B5
:104E30009DF90F000028019200930ADBFFE702981A
:104E400000019DF90F104EF20042CEF2000288548C
:104E50000BE0029800019DF80F1001F00F014EF6D3
:104E60001452CEF200028854FFE704B070470000ED
:104E700084B001460390039800F0070001904EF6BD
:104E80000C50CEF2000002680292029A4FF6FF0325
:104E90001A400292029A019B42EA03220023C0F2C6
:104EA000FA531A430292029A0260009104B07047CA
:104EB00080B540F25C10C2F20000FFF751FF80BDE8
:104EC00080B584B000200390FDF77EFE0290FFF7CE
:104ED000E7F9FFF71FF9FFF7D3F8FFF7F7F8FFF748
:104EE00077F900F003F80190FFE7FEE780B584B0A2
:104EF000FFF7E4FCEE460120CEF8000040F25C1023
:104F0000C2F2000040F27C02C2F2000240F27403DE
:104F1000C2F200030821FFF7A7FEFFE740F25C1092
:104F2000C2F20000B0F9001045F6A002C0F600027F
:104F300002901046FFF794FC029890ED080AFFF7E4
:104F4000CBFE0298FFF7F4FE0A20FDF7FDFBE5E734
:104F50005FEA400C08BF91F0000F4FEA8C234FEA44
:104F6000C12243EA51514FEA1C5018BF00F5F040EE
:104F70004FEA300018BF41F000415FEA6C5C00F07E
:104F80002980BCF1FF3F08BF40F080407047130C00
:104F900006BF12044FF0100C4FF0000C130E04BFAC
:104FA00012020CF1080C130F04BF12010CF1040CD7
:104FB000930F04BF92000CF1020CD30F04BF5200F8
:104FC0000CF1010C11464FF00002A0F11F00A0EB04
:104FD0000C00704711F0004F08BF704731F00041DE
:104FE0003FF4D5AF0B0C06BF09044FF0100C4FF087
:104FF000000C0B0E04BF09020CF1080C0B0F04BFD0
:1050000009010CF1040C8B0F04BF89000CF1020C98
:10501000CB0F04BF49000CF1010CCCF1200322FAA4
:1050200003F341EA030102FA0CF2A0EB0C0000F1D9
:105030000100704723F07F4720F07F4C80EA030097
:1050400000F00040ACEB070303F57C5303F1FF03D2
:105050002DE9804909B44FEA144324EA03484FEA92
:10506000154B25EA0B4E0FF2042606EB13273E786C
:1050700003FB0667C7F5000707FB06F64FEAD646AF
:1050800006F102064FEA543707FB066CCCF1005CD0
:105090004FEA1C472CEA074C0CFB06F507FB06F40D
:1050A00004EB15464FEA961649085FEA320234BF10
:1050B00000204FF000404FEAD13706FB07FC4FEAD3
:1050C0001C4C0CFB0BF7D21B03FB0CF761EB07012D
:1050D0000CFB0EF7B0EB074072EB17420CFB08F726
:1050E00034BFA2EB0742B2EB074261EB17414FEA34
:1050F0000C444FEA910706FB07FC4FEA1C4C0CFBE3
:105100000BF7B0EBC74072EB573203FB0CF734BF21
:10511000A2EBC742B2EBC74261EB57310CFB0EF773
:10512000B0EBC70072EB57720CFB08F734BFA2EB71
:10513000C702B2EBC70261EB57714FEA816141EAE6
:1051400092114FEA826242EA90124FEA806004EBC9
:10515000CC04039F4FEAD13706FB07FC4FEA1C4CF7
:105160000CFB0BF7D21B03FB0CF761EB07010CFBED
:105170000EF7B0EB074072EB17420CFB08F734BF99
:10518000A2EB0742B2EB074261EB17414FEA8C55A5
:1051900004EB9C244FEA910706FB07FC4FEA1C4CEA
:1051A0000CFB0BF7B0EBC74072EB573203FB0CF76D
:1051B00034BFA2EBC742B2EBC74261EB57310CFBE5
:1051C0000EF7B0EBC70072EB57720CFB08F734BF59
:1051D000A2EBC702B2EBC70261EB57714FEA8161E4
:1051E00041EA92114FEA826242EA90124FEA8060ED
:1051F00015EB4C2544F100044FEAD13706FB07FCC0
:105200004FEA1C4C0CFB0BF7D21B03FB0CF761EBBA
:1052100007010CFB0EF7B0EB074072EB17420CFBDB
:1052200008F734BFA2EB0742B2EB074261EB17412C
:105230004FEA813141EA92414FEA823242EA90429A
:105240004FEA80304FEA0C7615EB1C1544F1000450
:1052500048EA03434EEA0B484FF0000EB2EB080C4D
:1052600071EB030724BF624639464EEB0E0E4FF03A
:10527000000B0018524149414BEB0B0BB2EB080CF1
:1052800071EB03077BF1000B24BF624639464EEBFE
:105290000E0E4FF0000B0018524149414BEB0B0B27
:1052A000B2EB080C71EB03077BF1000B24BF6246E5
:1052B00039464EEB0E0E51EA020718BF46F00106C2
:1052C00016EB0E7655F1000254F1000103D5BDE84E
:1052D0008901BDE80088BDE88901BDE80048B6192C
:1052E000524141EB0101A3F10103704780807F7EB1
:1052F0007D7C7B7A7978777676757473727171704C
:105300006F6E6E6D6C6C6B6A6A69686867666665FD
:105310006464636362616160605F5F5E5E5D5D5C8B
:105320005C5B5B5A5A5959585857575656555555FC
:105330005454535352525251515050504F4F4F4E5C
:105340004E4D4D4D4C4C4C4B4B4B4A4A4A494949AA
:1053500048484847474747464646454545444444EC
:105360004443434343424242424141419C46002B15
:1053700030D477002BD04FEA37071CB503B44FF079
:1053800010004FF01001BAF1000F06D0BCF1000F71
:10539000DCBF40F0080040F008014FF000000FBCF7
:1053A000BDE810400BF1010BBBF1010F08BF5FEA34
:1053B000170722BF12F1010211F101014FF0004164
:1053C00043F1000300F0004043EA00007047F9D3C6
:1053D0005708D0E746EA06464FEA164613F1400F53
:1053E0001FDD13F1200FDFBF16430A4600212033D3
:1053F0005B42BED0C3F1200746EA06464FEA164696
:1054000002FA07F746EA070622FA03F2C3F1200779
:1054100001FA07F742EA070221FA03F14FF000030D
:10542000A7E746EA020646EA06464FEA164646EA75
:105430000106BCBF46EA0646360C4FF000034FF0AB
:1054400000024FF0000194E72DE9804C70B49A46B9
:10545000934691E8380007C831EA400C48BF34EA67
:10546000430C03D5FFF7E6FDFFF780FFF0BCBDE876
:10547000008C2DE9804C70B49A46934691E8380030
:1054800007C810F0804F08BF13F0804F03D100F021
:1054900005F8FFF76BFFF0BCBDE8008C20F07F47FC
:1054A00023F07F4C80EA030000F0004007EB0C0380
:1054B000A3F57C53A3F1FE0392F0000F00F0B3803C
:1054C00095F0000F00F077802DE901494FEA114077
:1054D00021EA00484FEA144624EA064700FB06FC8E
:1054E00008FB06F607FB08F818EB06484CEB164CD1
:1054F00000FB07F718EB07484CEB17404FEA124B3D
:1055000022EA0B4E4FEA154625EA06470BFB06FC3E
:105510000EFB06F607FB0EFE1EEB064E4CEB164C82
:105520000BFB07F71EEB074E4CEB174B18EB0B086A
:1055300040F1000018EB0E0B58EB000840F10000A2
:105540008F1A4FF000014FF000063CBFC943661BA5
:1055500014BFB5EB040C00213CBFC943F61B4FEA56
:10556000174427EA04454FEA1C472CEA074C04FB82
:10557000076205FB07F70CFB05F616EB074642EB47
:10558000174204FB0CFC16EB0C4642EB1C421BEBD7
:10559000060658EB020241414EEA8E0E46EA9E068E
:1055A00001D5BDE80189B619524141EB0101A3F1D2
:1055B0000103BDE801894FEA144524EA05464FEA94
:1055C000114721EA074C05FB07F406FB07F70CFB24
:1055D00006F111EB074144EB174405FB0CFC11EB02
:1055E0000C4144EB1C444FEA124722EA074C05FBEE
:1055F00007F206FB07F70CFB06F616EB074642EB35
:10560000174205FB0CFC16EB0C4642EB1C456A18D6
:1056100054F1000148BF7047B619524141EB0101F6
:10562000A3F10103704795F0000F37D04FEA114204
:1056300021EA02464FEA144724EA074C02FB07F12D
:1056400006FB07F70CFB06F414EB074441EB17418C
:1056500002FB0CFC14EB0C4441EB1C414FEA1547D8
:1056600025EA074C02FB07F506FB07F70CFB06F6DD
:1056700016EB074645EB174502FB0CFC16EB0C46F8
:1056800045EB1C42121951F1000148BF7047B61991
:10569000524141EB0101A3F1010370474FEA144568
:1056A00024EA05464FEA114721EA074C05FB07F1BA
:1056B00006FB07F70CFB06F212EB074241EB174122
:1056C00005FB0CFC12EB0C4251EB1C414FF00006A9
:1056D00048BF7047921841EB0101A3F101037047E5
:1056E00003B401984100009850EAC12018BF04207B
:1056F0004A0D18BF40F0010040F2FF72B2EB515F5B
:1057000008BF40F00200012808BF052002B0704722
:1057100030380A2801D2012070470020704700006D
:1057200010B500290AD00878002807D00548784429
:10573000FBF7E2FF002801D0002010BD02487844AA
:1057400010BD0000960100008E01000010B5002978
:105750000AD00878002807D005487844FBF7CCFF2A
:10576000002801D0002010BD0248784410BD000080
:10577000860100007E0100004FF04070E1EE100A4B
:105780007047FBF7F6BAFBF72BBC000000000000E7
:105790000000000030313233343536373839414279
:1057A0004344454640305800303132333435363783
:1057B000383961626364656640307800040000082F
:1057C0000000000000000002000100001030313233
:1057D0003334353637383961626364656678700012
:1057E0003031323334353637383941424344454617
:1057F0005850000002400000000000A0000000001F
:1058000005400000000000C8000000000C4000003F
:105810000000409C00000000194000000020BCBEB9
:105820000000000034400000BFC91B8E00000004CF
:10583000B5400000504BCFD06607E2CF010000001A
:105840006C4100003E8251AADFEEA7340100000047
:10585000D9420000DCB5A0E23A301F97FFFFFFFFFE
:10586000B4450000FD25A0C8E9A3C14FFFFFFFFF1D
:10587000FF3F00000000008000000000FF3F00002C
:105880000000008000000000000000000000000098
:1058900001020304060708090000000001020304D6
:1058A00025640A00F85900080000002010000000DC
:1058B000E8010008085A000810000020B045000068
:1058C000040200081C00000043000000F8FFFFFF76
:1058D0000C0000000E0000000F0000002E00000071
:1058E0001001000043000000F8FFFFFF00404040AF
:1058F00040404040404041414141414040404040A3
:10590000404040404040404040404040400502024E
:10591000020202020202020202020202022020200D
:105920002020202020202002020202020202909069
:105930009090909010101010101010101010101067
:1059400010101010101010100202020202028888BB
:1059500088888888080808080808080808080808C7
:1059600008080808080808080202020240000000AF
:105970000000000000000000000000000000000027
:105980000000000000000000000000000000000017
:105990000000000000000000000000000000000007
:1059A00000000000000000000000000000000000F7
:1059B00000000000000000000000000000000000E7
:1059C00000000000000000000000000000000000D7
:1059D00000000000000000000000000000000000C7
:1059E00000000000000000000000000000000000B7
:1059F00069EEFFFF000000000024F4000100000039
:085A000010000000000000008E
:04000005080001AD41
:00000001FF
